{
  "contractName": "Study",
  "abi": [
    {
      "constant": true,
      "inputs": [
        {
          "internalType": "uint256",
          "name": "",
          "type": "uint256"
        }
      ],
      "name": "filesbystudents",
      "outputs": [
        {
          "internalType": "uint256",
          "name": "id",
          "type": "uint256"
        },
        {
          "internalType": "string",
          "name": "filehash",
          "type": "string"
        },
        {
          "internalType": "string",
          "name": "subject",
          "type": "string"
        },
        {
          "internalType": "string",
          "name": "time",
          "type": "string"
        },
        {
          "internalType": "string",
          "name": "description",
          "type": "string"
        },
        {
          "internalType": "address",
          "name": "student",
          "type": "address"
        }
      ],
      "payable": false,
      "stateMutability": "view",
      "type": "function"
    },
    {
      "constant": true,
      "inputs": [
        {
          "internalType": "uint256",
          "name": "",
          "type": "uint256"
        }
      ],
      "name": "filesbyteachers",
      "outputs": [
        {
          "internalType": "uint256",
          "name": "id",
          "type": "uint256"
        },
        {
          "internalType": "string",
          "name": "filehash",
          "type": "string"
        },
        {
          "internalType": "string",
          "name": "subject",
          "type": "string"
        },
        {
          "internalType": "string",
          "name": "time",
          "type": "string"
        },
        {
          "internalType": "string",
          "name": "description",
          "type": "string"
        },
        {
          "internalType": "address",
          "name": "teacher",
          "type": "address"
        }
      ],
      "payable": false,
      "stateMutability": "view",
      "type": "function"
    },
    {
      "constant": true,
      "inputs": [
        {
          "internalType": "address",
          "name": "",
          "type": "address"
        },
        {
          "internalType": "address",
          "name": "",
          "type": "address"
        },
        {
          "internalType": "uint256",
          "name": "",
          "type": "uint256"
        }
      ],
      "name": "messages",
      "outputs": [
        {
          "internalType": "string",
          "name": "",
          "type": "string"
        }
      ],
      "payable": false,
      "stateMutability": "view",
      "type": "function"
    },
    {
      "constant": true,
      "inputs": [
        {
          "internalType": "address",
          "name": "",
          "type": "address"
        }
      ],
      "name": "roles",
      "outputs": [
        {
          "internalType": "string",
          "name": "",
          "type": "string"
        }
      ],
      "payable": false,
      "stateMutability": "view",
      "type": "function"
    },
    {
      "constant": true,
      "inputs": [],
      "name": "studentCount",
      "outputs": [
        {
          "internalType": "uint256",
          "name": "",
          "type": "uint256"
        }
      ],
      "payable": false,
      "stateMutability": "view",
      "type": "function"
    },
    {
      "constant": true,
      "inputs": [],
      "name": "studentfilesCount",
      "outputs": [
        {
          "internalType": "uint256",
          "name": "",
          "type": "uint256"
        }
      ],
      "payable": false,
      "stateMutability": "view",
      "type": "function"
    },
    {
      "constant": true,
      "inputs": [
        {
          "internalType": "address",
          "name": "",
          "type": "address"
        }
      ],
      "name": "studentpreferences",
      "outputs": [
        {
          "internalType": "string",
          "name": "",
          "type": "string"
        }
      ],
      "payable": false,
      "stateMutability": "view",
      "type": "function"
    },
    {
      "constant": true,
      "inputs": [
        {
          "internalType": "uint256",
          "name": "",
          "type": "uint256"
        }
      ],
      "name": "students",
      "outputs": [
        {
          "internalType": "uint256",
          "name": "id",
          "type": "uint256"
        },
        {
          "internalType": "address",
          "name": "addr",
          "type": "address"
        },
        {
          "internalType": "string",
          "name": "name",
          "type": "string"
        },
        {
          "internalType": "string",
          "name": "phonenumber",
          "type": "string"
        },
        {
          "internalType": "string",
          "name": "email",
          "type": "string"
        },
        {
          "internalType": "string",
          "name": "dob",
          "type": "string"
        },
        {
          "internalType": "string",
          "name": "Address",
          "type": "string"
        },
        {
          "internalType": "string",
          "name": "IDproof",
          "type": "string"
        }
      ],
      "payable": false,
      "stateMutability": "view",
      "type": "function"
    },
    {
      "constant": true,
      "inputs": [],
      "name": "teacherCount",
      "outputs": [
        {
          "internalType": "uint256",
          "name": "",
          "type": "uint256"
        }
      ],
      "payable": false,
      "stateMutability": "view",
      "type": "function"
    },
    {
      "constant": true,
      "inputs": [],
      "name": "teacherfilesCount",
      "outputs": [
        {
          "internalType": "uint256",
          "name": "",
          "type": "uint256"
        }
      ],
      "payable": false,
      "stateMutability": "view",
      "type": "function"
    },
    {
      "constant": true,
      "inputs": [
        {
          "internalType": "address",
          "name": "",
          "type": "address"
        }
      ],
      "name": "teacherpreferences",
      "outputs": [
        {
          "internalType": "string",
          "name": "",
          "type": "string"
        }
      ],
      "payable": false,
      "stateMutability": "view",
      "type": "function"
    },
    {
      "constant": true,
      "inputs": [
        {
          "internalType": "uint256",
          "name": "",
          "type": "uint256"
        }
      ],
      "name": "teachers",
      "outputs": [
        {
          "internalType": "uint256",
          "name": "id",
          "type": "uint256"
        },
        {
          "internalType": "address",
          "name": "addr",
          "type": "address"
        },
        {
          "internalType": "string",
          "name": "name",
          "type": "string"
        },
        {
          "internalType": "string",
          "name": "phonenumber",
          "type": "string"
        },
        {
          "internalType": "string",
          "name": "email",
          "type": "string"
        },
        {
          "internalType": "string",
          "name": "dob",
          "type": "string"
        },
        {
          "internalType": "string",
          "name": "orgname",
          "type": "string"
        },
        {
          "internalType": "string",
          "name": "Address",
          "type": "string"
        }
      ],
      "payable": false,
      "stateMutability": "view",
      "type": "function"
    },
    {
      "constant": false,
      "inputs": [
        {
          "internalType": "address",
          "name": "_to",
          "type": "address"
        },
        {
          "internalType": "string",
          "name": "_msg",
          "type": "string"
        }
      ],
      "name": "addMessage",
      "outputs": [],
      "payable": false,
      "stateMutability": "nonpayable",
      "type": "function"
    },
    {
      "constant": true,
      "inputs": [
        {
          "internalType": "address",
          "name": "_from",
          "type": "address"
        },
        {
          "internalType": "address",
          "name": "_to",
          "type": "address"
        }
      ],
      "name": "returnmessages",
      "outputs": [
        {
          "internalType": "string[]",
          "name": "",
          "type": "string[]"
        }
      ],
      "payable": false,
      "stateMutability": "view",
      "type": "function"
    },
    {
      "constant": false,
      "inputs": [
        {
          "internalType": "string",
          "name": "_preference",
          "type": "string"
        }
      ],
      "name": "storepreferenceTeacher",
      "outputs": [],
      "payable": false,
      "stateMutability": "nonpayable",
      "type": "function"
    },
    {
      "constant": false,
      "inputs": [
        {
          "internalType": "string",
          "name": "_preference",
          "type": "string"
        }
      ],
      "name": "storepreferenceStudent",
      "outputs": [],
      "payable": false,
      "stateMutability": "nonpayable",
      "type": "function"
    },
    {
      "constant": false,
      "inputs": [
        {
          "internalType": "string",
          "name": "_name",
          "type": "string"
        },
        {
          "internalType": "string",
          "name": "_phonenumber",
          "type": "string"
        },
        {
          "internalType": "string",
          "name": "_email",
          "type": "string"
        },
        {
          "internalType": "string",
          "name": "_dob",
          "type": "string"
        },
        {
          "internalType": "string",
          "name": "_orgname",
          "type": "string"
        },
        {
          "internalType": "string",
          "name": "_Address",
          "type": "string"
        }
      ],
      "name": "registerteacher",
      "outputs": [],
      "payable": false,
      "stateMutability": "nonpayable",
      "type": "function"
    },
    {
      "constant": false,
      "inputs": [
        {
          "internalType": "string",
          "name": "_name",
          "type": "string"
        },
        {
          "internalType": "string",
          "name": "_phonenumber",
          "type": "string"
        },
        {
          "internalType": "string",
          "name": "_email",
          "type": "string"
        },
        {
          "internalType": "string",
          "name": "_dob",
          "type": "string"
        },
        {
          "internalType": "string",
          "name": "_Address",
          "type": "string"
        },
        {
          "internalType": "string",
          "name": "_IDproof",
          "type": "string"
        }
      ],
      "name": "registerstudent",
      "outputs": [],
      "payable": false,
      "stateMutability": "nonpayable",
      "type": "function"
    },
    {
      "constant": false,
      "inputs": [
        {
          "internalType": "string",
          "name": "_subject",
          "type": "string"
        },
        {
          "internalType": "string",
          "name": "_description",
          "type": "string"
        },
        {
          "internalType": "string",
          "name": "_filehash",
          "type": "string"
        },
        {
          "internalType": "string",
          "name": "_time",
          "type": "string"
        }
      ],
      "name": "addNewfilebyStudent",
      "outputs": [],
      "payable": false,
      "stateMutability": "nonpayable",
      "type": "function"
    },
    {
      "constant": false,
      "inputs": [
        {
          "internalType": "string",
          "name": "_subject",
          "type": "string"
        },
        {
          "internalType": "string",
          "name": "_filehash",
          "type": "string"
        },
        {
          "internalType": "string",
          "name": "_time",
          "type": "string"
        },
        {
          "internalType": "string",
          "name": "_description",
          "type": "string"
        }
      ],
      "name": "addNewfilebyTeacher",
      "outputs": [],
      "payable": false,
      "stateMutability": "nonpayable",
      "type": "function"
    }
  ],
  "bytecode": "0x60806040526000805560006001556000600255600060035534801561002357600080fd5b50612740806100336000396000f3fe608060405234801561001057600080fd5b506004361061012c5760003560e01c806395b7676e116100ad578063c7fedae111610071578063c7fedae11461038c578063e22754b0146103aa578063e2d5349c146103c6578063e581f9ee146103e2578063f719cc5a146104005761012c565b806395b7676e146102c257806399374642146102f25780639d672d7214610322578063a3815cb714610352578063bc7aa54d146103705761012c565b80634d366bf3116100f45780634d366bf31461020e5780636b5bd0301461022a57806374e96a4f146102465780637f66594b1461027657806389aac413146102925761012c565b806306ead22e1461013157806334ac0b40146101685780633e175bc31461019f57806346be3136146101bb57806346d39805146101d9575b600080fd5b61014b600480360361014691908101906122bb565b610435565b60405161015f98979695949392919061245c565b60405180910390f35b610182600480360361017d91908101906122bb565b61082d565b60405161019698979695949392919061245c565b60405180910390f35b6101b960048036036101b491908101906121a2565b610c25565b005b6101c3610e31565b6040516101d09190612441565b60405180910390f35b6101f360048036036101ee91908101906122bb565b610e37565b60405161020596959493929190612504565b60405180910390f35b6102286004803603610223919081019061209e565b6110f3565b005b610244600480360361023f91908101906120df565b61114a565b005b610260600480360361025b9190810190611ffb565b611284565b60405161026d919061241f565b60405180910390f35b610290600480360361028b91908101906121a2565b611357565b005b6102ac60048036036102a79190810190611f96565b611561565b6040516102b9919061241f565b60405180910390f35b6102dc60048036036102d79190810190611fbf565b611611565b6040516102e991906123fd565b60405180910390f35b61030c60048036036103079190810190611f96565b611777565b604051610319919061241f565b60405180910390f35b61033c60048036036103379190810190611f96565b611827565b604051610349919061241f565b60405180910390f35b61035a6118d7565b6040516103679190612441565b60405180910390f35b61038a6004803603610385919081019061204a565b6118dd565b005b61039461199a565b6040516103a19190612441565b60405180910390f35b6103c460048036036103bf919081019061209e565b6119a0565b005b6103e060048036036103db91908101906120df565b6119f7565b005b6103ea611b31565b6040516103f79190612441565b60405180910390f35b61041a600480360361041591908101906122bb565b611b37565b60405161042c96959493929190612504565b60405180910390f35b60066020528060005260406000206000915090508060000154908060010160009054906101000a900473ffffffffffffffffffffffffffffffffffffffff1690806002018054600181600116156101000203166002900480601f01602080910402602001604051908101604052809291908181526020018280546001816001161561010002031660029004801561050d5780601f106104e25761010080835404028352916020019161050d565b820191906000526020600020905b8154815290600101906020018083116104f057829003601f168201915b505050505090806003018054600181600116156101000203166002900480601f0160208091040260200160405190810160405280929190818152602001828054600181600116156101000203166002900480156105ab5780601f10610580576101008083540402835291602001916105ab565b820191906000526020600020905b81548152906001019060200180831161058e57829003601f168201915b505050505090806004018054600181600116156101000203166002900480601f0160208091040260200160405190810160405280929190818152602001828054600181600116156101000203166002900480156106495780601f1061061e57610100808354040283529160200191610649565b820191906000526020600020905b81548152906001019060200180831161062c57829003601f168201915b505050505090806005018054600181600116156101000203166002900480601f0160208091040260200160405190810160405280929190818152602001828054600181600116156101000203166002900480156106e75780601f106106bc576101008083540402835291602001916106e7565b820191906000526020600020905b8154815290600101906020018083116106ca57829003601f168201915b505050505090806006018054600181600116156101000203166002900480601f0160208091040260200160405190810160405280929190818152602001828054600181600116156101000203166002900480156107855780601f1061075a57610100808354040283529160200191610785565b820191906000526020600020905b81548152906001019060200180831161076857829003601f168201915b505050505090806007018054600181600116156101000203166002900480601f0160208091040260200160405190810160405280929190818152602001828054600181600116156101000203166002900480156108235780601f106107f857610100808354040283529160200191610823565b820191906000526020600020905b81548152906001019060200180831161080657829003601f168201915b5050505050905088565b60056020528060005260406000206000915090508060000154908060010160009054906101000a900473ffffffffffffffffffffffffffffffffffffffff1690806002018054600181600116156101000203166002900480601f0160208091040260200160405190810160405280929190818152602001828054600181600116156101000203166002900480156109055780601f106108da57610100808354040283529160200191610905565b820191906000526020600020905b8154815290600101906020018083116108e857829003601f168201915b505050505090806003018054600181600116156101000203166002900480601f0160208091040260200160405190810160405280929190818152602001828054600181600116156101000203166002900480156109a35780601f10610978576101008083540402835291602001916109a3565b820191906000526020600020905b81548152906001019060200180831161098657829003601f168201915b505050505090806004018054600181600116156101000203166002900480601f016020809104026020016040519081016040528092919081815260200182805460018160011615610100020316600290048015610a415780601f10610a1657610100808354040283529160200191610a41565b820191906000526020600020905b815481529060010190602001808311610a2457829003601f168201915b505050505090806005018054600181600116156101000203166002900480601f016020809104026020016040519081016040528092919081815260200182805460018160011615610100020316600290048015610adf5780601f10610ab457610100808354040283529160200191610adf565b820191906000526020600020905b815481529060010190602001808311610ac257829003601f168201915b505050505090806006018054600181600116156101000203166002900480601f016020809104026020016040519081016040528092919081815260200182805460018160011615610100020316600290048015610b7d5780601f10610b5257610100808354040283529160200191610b7d565b820191906000526020600020905b815481529060010190602001808311610b6057829003601f168201915b505050505090806007018054600181600116156101000203166002900480601f016020809104026020016040519081016040528092919081815260200182805460018160011615610100020316600290048015610c1b5780601f10610bf057610100808354040283529160200191610c1b565b820191906000526020600020905b815481529060010190602001808311610bfe57829003601f168201915b5050505050905088565b60016000815480929190600101919050555060405180610100016040528060015481526020013373ffffffffffffffffffffffffffffffffffffffff168152602001878152602001868152602001858152602001848152602001838152602001828152506006600060015481526020019081526020016000206000820151816000015560208201518160010160006101000a81548173ffffffffffffffffffffffffffffffffffffffff021916908373ffffffffffffffffffffffffffffffffffffffff1602179055506040820151816002019080519060200190610d0b929190611df3565b506060820151816003019080519060200190610d28929190611df3565b506080820151816004019080519060200190610d45929190611df3565b5060a0820151816005019080519060200190610d62929190611df3565b5060c0820151816006019080519060200190610d7f929190611df3565b5060e0820151816007019080519060200190610d9c929190611df3565b509050506040518060400160405280600181526020017f3200000000000000000000000000000000000000000000000000000000000000815250600460003373ffffffffffffffffffffffffffffffffffffffff1673ffffffffffffffffffffffffffffffffffffffff1681526020019081526020016000209080519060200190610e28929190611e73565b50505050505050565b60005481565b6008602052806000526040600020600091509050806000015490806001018054600181600116156101000203166002900480601f016020809104026020016040519081016040528092919081815260200182805460018160011615610100020316600290048015610ee95780601f10610ebe57610100808354040283529160200191610ee9565b820191906000526020600020905b815481529060010190602001808311610ecc57829003601f168201915b505050505090806002018054600181600116156101000203166002900480601f016020809104026020016040519081016040528092919081815260200182805460018160011615610100020316600290048015610f875780601f10610f5c57610100808354040283529160200191610f87565b820191906000526020600020905b815481529060010190602001808311610f6a57829003601f168201915b505050505090806003018054600181600116156101000203166002900480601f0160208091040260200160405190810160405280929190818152602001828054600181600116156101000203166002900480156110255780601f10610ffa57610100808354040283529160200191611025565b820191906000526020600020905b81548152906001019060200180831161100857829003601f168201915b505050505090806004018054600181600116156101000203166002900480601f0160208091040260200160405190810160405280929190818152602001828054600181600116156101000203166002900480156110c35780601f10611098576101008083540402835291602001916110c3565b820191906000526020600020905b8154815290600101906020018083116110a657829003601f168201915b5050505050908060050160009054906101000a900473ffffffffffffffffffffffffffffffffffffffff16905086565b80600a60003373ffffffffffffffffffffffffffffffffffffffff1673ffffffffffffffffffffffffffffffffffffffff1681526020019081526020016000209080519060200190611146929190611e73565b5050565b6003600081548092919060010191905055506040518060c0016040528060025481526020018481526020018581526020018381526020018281526020013373ffffffffffffffffffffffffffffffffffffffff168152506007600060035481526020019081526020016000206000820151816000015560208201518160010190805190602001906111dc929190611df3565b5060408201518160020190805190602001906111f9929190611df3565b506060820151816003019080519060200190611216929190611df3565b506080820151816004019080519060200190611233929190611df3565b5060a08201518160050160006101000a81548173ffffffffffffffffffffffffffffffffffffffff021916908373ffffffffffffffffffffffffffffffffffffffff16021790555090505050505050565b600960205282600052604060002060205281600052604060002081815481106112a957fe5b9060005260206000200160009250925050508054600181600116156101000203166002900480601f01602080910402602001604051908101604052809291908181526020018280546001816001161561010002031660029004801561134f5780601f106113245761010080835404028352916020019161134f565b820191906000526020600020905b81548152906001019060200180831161133257829003601f168201915b505050505081565b600080815480929190600101919050555060405180610100016040528060005481526020013373ffffffffffffffffffffffffffffffffffffffff1681526020018781526020018681526020018581526020018481526020018381526020018281525060056000805481526020019081526020016000206000820151816000015560208201518160010160006101000a81548173ffffffffffffffffffffffffffffffffffffffff021916908373ffffffffffffffffffffffffffffffffffffffff160217905550604082015181600201908051906020019061143b929190611df3565b506060820151816003019080519060200190611458929190611df3565b506080820151816004019080519060200190611475929190611df3565b5060a0820151816005019080519060200190611492929190611df3565b5060c08201518160060190805190602001906114af929190611df3565b5060e08201518160070190805190602001906114cc929190611df3565b509050506040518060400160405280600181526020017f3100000000000000000000000000000000000000000000000000000000000000815250600460003373ffffffffffffffffffffffffffffffffffffffff1673ffffffffffffffffffffffffffffffffffffffff1681526020019081526020016000209080519060200190611558929190611e73565b50505050505050565b600a6020528060005260406000206000915090508054600181600116156101000203166002900480601f0160208091040260200160405190810160405280929190818152602001828054600181600116156101000203166002900480156116095780601f106115de57610100808354040283529160200191611609565b820191906000526020600020905b8154815290600101906020018083116115ec57829003601f168201915b505050505081565b6060600960008473ffffffffffffffffffffffffffffffffffffffff1673ffffffffffffffffffffffffffffffffffffffff16815260200190815260200160002060008373ffffffffffffffffffffffffffffffffffffffff1673ffffffffffffffffffffffffffffffffffffffff168152602001908152602001600020805480602002602001604051908101604052809291908181526020016000905b8282101561176b578382906000526020600020018054600181600116156101000203166002900480601f0160208091040260200160405190810160405280929190818152602001828054600181600116156101000203166002900480156117575780601f1061172c57610100808354040283529160200191611757565b820191906000526020600020905b81548152906001019060200180831161173a57829003601f168201915b5050505050815260200190600101906116af565b50505050905092915050565b60046020528060005260406000206000915090508054600181600116156101000203166002900480601f01602080910402602001604051908101604052809291908181526020018280546001816001161561010002031660029004801561181f5780601f106117f45761010080835404028352916020019161181f565b820191906000526020600020905b81548152906001019060200180831161180257829003601f168201915b505050505081565b600b6020528060005260406000206000915090508054600181600116156101000203166002900480601f0160208091040260200160405190810160405280929190818152602001828054600181600116156101000203166002900480156118cf5780601f106118a4576101008083540402835291602001916118cf565b820191906000526020600020905b8154815290600101906020018083116118b257829003601f168201915b505050505081565b60035481565b600960003373ffffffffffffffffffffffffffffffffffffffff1673ffffffffffffffffffffffffffffffffffffffff16815260200190815260200160002060008373ffffffffffffffffffffffffffffffffffffffff1673ffffffffffffffffffffffffffffffffffffffff168152602001908152602001600020819080600181540180825580915050906001820390600052602060002001600090919290919091509080519060200190611994929190611e73565b50505050565b60025481565b80600b60003373ffffffffffffffffffffffffffffffffffffffff1673ffffffffffffffffffffffffffffffffffffffff16815260200190815260200160002090805190602001906119f3929190611e73565b5050565b6002600081548092919060010191905055506040518060c0016040528060025481526020018381526020018581526020018281526020018481526020013373ffffffffffffffffffffffffffffffffffffffff16815250600860006002548152602001908152602001600020600082015181600001556020820151816001019080519060200190611a89929190611df3565b506040820151816002019080519060200190611aa6929190611df3565b506060820151816003019080519060200190611ac3929190611df3565b506080820151816004019080519060200190611ae0929190611df3565b5060a08201518160050160006101000a81548173ffffffffffffffffffffffffffffffffffffffff021916908373ffffffffffffffffffffffffffffffffffffffff16021790555090505050505050565b60015481565b6007602052806000526040600020600091509050806000015490806001018054600181600116156101000203166002900480601f016020809104026020016040519081016040528092919081815260200182805460018160011615610100020316600290048015611be95780601f10611bbe57610100808354040283529160200191611be9565b820191906000526020600020905b815481529060010190602001808311611bcc57829003601f168201915b505050505090806002018054600181600116156101000203166002900480601f016020809104026020016040519081016040528092919081815260200182805460018160011615610100020316600290048015611c875780601f10611c5c57610100808354040283529160200191611c87565b820191906000526020600020905b815481529060010190602001808311611c6a57829003601f168201915b505050505090806003018054600181600116156101000203166002900480601f016020809104026020016040519081016040528092919081815260200182805460018160011615610100020316600290048015611d255780601f10611cfa57610100808354040283529160200191611d25565b820191906000526020600020905b815481529060010190602001808311611d0857829003601f168201915b505050505090806004018054600181600116156101000203166002900480601f016020809104026020016040519081016040528092919081815260200182805460018160011615610100020316600290048015611dc35780601f10611d9857610100808354040283529160200191611dc3565b820191906000526020600020905b815481529060010190602001808311611da657829003601f168201915b5050505050908060050160009054906101000a900473ffffffffffffffffffffffffffffffffffffffff16905086565b828054600181600116156101000203166002900490600052602060002090601f016020900481019282601f10611e3457805160ff1916838001178555611e62565b82800160010185558215611e62579182015b82811115611e61578251825591602001919060010190611e46565b5b509050611e6f9190611ef3565b5090565b828054600181600116156101000203166002900490600052602060002090601f016020900481019282601f10611eb457805160ff1916838001178555611ee2565b82800160010185558215611ee2579182015b82811115611ee1578251825591602001919060010190611ec6565b5b509050611eef9190611ef3565b5090565b611f1591905b80821115611f11576000816000905550600101611ef9565b5090565b90565b600081359050611f27816126cf565b92915050565b600082601f830112611f3e57600080fd5b8135611f51611f4c826125ae565b612581565b91508082526020830160208301858383011115611f6d57600080fd5b611f7883828461267c565b50505092915050565b600081359050611f90816126e6565b92915050565b600060208284031215611fa857600080fd5b6000611fb684828501611f18565b91505092915050565b60008060408385031215611fd257600080fd5b6000611fe085828601611f18565b9250506020611ff185828601611f18565b9150509250929050565b60008060006060848603121561201057600080fd5b600061201e86828701611f18565b935050602061202f86828701611f18565b925050604061204086828701611f81565b9150509250925092565b6000806040838503121561205d57600080fd5b600061206b85828601611f18565b925050602083013567ffffffffffffffff81111561208857600080fd5b61209485828601611f2d565b9150509250929050565b6000602082840312156120b057600080fd5b600082013567ffffffffffffffff8111156120ca57600080fd5b6120d684828501611f2d565b91505092915050565b600080600080608085870312156120f557600080fd5b600085013567ffffffffffffffff81111561210f57600080fd5b61211b87828801611f2d565b945050602085013567ffffffffffffffff81111561213857600080fd5b61214487828801611f2d565b935050604085013567ffffffffffffffff81111561216157600080fd5b61216d87828801611f2d565b925050606085013567ffffffffffffffff81111561218a57600080fd5b61219687828801611f2d565b91505092959194509250565b60008060008060008060c087890312156121bb57600080fd5b600087013567ffffffffffffffff8111156121d557600080fd5b6121e189828a01611f2d565b965050602087013567ffffffffffffffff8111156121fe57600080fd5b61220a89828a01611f2d565b955050604087013567ffffffffffffffff81111561222757600080fd5b61223389828a01611f2d565b945050606087013567ffffffffffffffff81111561225057600080fd5b61225c89828a01611f2d565b935050608087013567ffffffffffffffff81111561227957600080fd5b61228589828a01611f2d565b92505060a087013567ffffffffffffffff8111156122a257600080fd5b6122ae89828a01611f2d565b9150509295509295509295565b6000602082840312156122cd57600080fd5b60006122db84828501611f81565b91505092915050565b60006122f0838361237c565b905092915050565b61230181612640565b82525050565b6000612312826125ea565b61231c818561260d565b93508360208202850161232e856125da565b8060005b8581101561236a578484038952815161234b85826122e4565b945061235683612600565b925060208a01995050600181019050612332565b50829750879550505050505092915050565b6000612387826125f5565b612391818561261e565b93506123a181856020860161268b565b6123aa816126be565b840191505092915050565b60006123c0826125f5565b6123ca818561262f565b93506123da81856020860161268b565b6123e3816126be565b840191505092915050565b6123f781612672565b82525050565b600060208201905081810360008301526124178184612307565b905092915050565b6000602082019050818103600083015261243981846123b5565b905092915050565b600060208201905061245660008301846123ee565b92915050565b600061010082019050612472600083018b6123ee565b61247f602083018a6122f8565b818103604083015261249181896123b5565b905081810360608301526124a581886123b5565b905081810360808301526124b981876123b5565b905081810360a08301526124cd81866123b5565b905081810360c08301526124e181856123b5565b905081810360e08301526124f581846123b5565b90509998505050505050505050565b600060c08201905061251960008301896123ee565b818103602083015261252b81886123b5565b9050818103604083015261253f81876123b5565b9050818103606083015261255381866123b5565b9050818103608083015261256781856123b5565b905061257660a08301846122f8565b979650505050505050565b6000604051905081810181811067ffffffffffffffff821117156125a457600080fd5b8060405250919050565b600067ffffffffffffffff8211156125c557600080fd5b601f19601f8301169050602081019050919050565b6000819050602082019050919050565b600081519050919050565b600081519050919050565b6000602082019050919050565b600082825260208201905092915050565b600082825260208201905092915050565b600082825260208201905092915050565b600061264b82612652565b9050919050565b600073ffffffffffffffffffffffffffffffffffffffff82169050919050565b6000819050919050565b82818337600083830152505050565b60005b838110156126a957808201518184015260208101905061268e565b838111156126b8576000848401525b50505050565b6000601f19601f8301169050919050565b6126d881612640565b81146126e357600080fd5b50565b6126ef81612672565b81146126fa57600080fd5b5056fea365627a7a72315820d4b1f3fb0876445fd5b11f2866704af8829cc6b85c2435e0924c519db2afb64a6c6578706572696d656e74616cf564736f6c63430005100040",
  "source": "pragma solidity >=0.4.22 <0.8.0;\r\npragma experimental ABIEncoderV2;\r\ncontract Study{\r\n    uint public teacherCount=0;\r\n    uint public studentCount=0;\r\n    uint public studentfilesCount=0;\r\n    uint public teacherfilesCount=0;\r\n    mapping (address => string) public roles;\r\n    struct Teacher{\r\n        uint id;\r\n        address addr;\r\n        string name;\r\n        string phonenumber;\r\n        string email;\r\n        string dob;\r\n        string orgname;\r\n        string Address;       \r\n    } \r\n    mapping(uint => Teacher) public teachers;\r\n    \r\n    struct Student{\r\n        uint id;\r\n        address addr;\r\n        string name;\r\n        string phonenumber;\r\n        string email;\r\n        string dob;\r\n        string Address;\r\n        string IDproof;\r\n    } \r\n    mapping(uint => Student) public students;\r\n\r\n    struct FileTeacher{\r\n        uint id;\r\n        string filehash;\r\n        string subject;\r\n        string time;\r\n        string description;\r\n        address teacher;\r\n    }\r\n    mapping(uint => FileTeacher) public filesbyteachers;\r\n\r\n    struct FileStudent{\r\n        uint id;\r\n        string filehash;\r\n        string subject;\r\n        string time;\r\n        string description;\r\n        address student;\r\n    }\r\n    mapping(uint => FileStudent) public filesbystudents;\r\n\r\n   mapping (address => mapping(address=>string [])) public messages;\r\n\r\n    mapping(address =>string) public teacherpreferences;   \r\n    mapping(address =>string) public studentpreferences;\r\n\r\n    function addMessage(address _to,string memory _msg) public {\r\n        //string [] storage _msgs=messages[msg.sender][_to];\r\n        //_msgs.push(_msg);\r\n        //messages[msg.sender][_to]=_msgs;  \r\n          messages[msg.sender][_to].push(_msg);    \r\n    }\r\n   function returnmessages(address _from,address _to)public view  returns ( string [] memory)   {\r\n       return  messages[_from][_to];\r\n  }\r\n    function storepreferenceTeacher(string memory _preference) public {\r\n        teacherpreferences[msg.sender]=_preference;\r\n    }\r\n    function storepreferenceStudent(string memory _preference) public {\r\n        studentpreferences[msg.sender]=_preference;\r\n    }\r\n    function registerteacher(string memory _name, string memory _phonenumber, string memory _email,string memory _dob,string memory _orgname, string memory _Address) public {\r\n        teacherCount++;\r\n        teachers[teacherCount]=Teacher(teacherCount,msg.sender,_name,_phonenumber,_email,_dob,_orgname,_Address);\r\n         roles[msg.sender]=\"1\";  \r\n    }\r\n    function registerstudent(string memory _name,  string memory _phonenumber,string memory _email,string memory _dob,string memory _Address,string memory _IDproof) public {\r\n        studentCount++;\r\n        students[studentCount]=Student(studentCount,msg.sender,_name,_phonenumber,_email,_dob, _Address,_IDproof);\r\n        roles[msg.sender]=\"2\";        \r\n    }\r\n    function addNewfilebyStudent(string memory _subject, string memory _description,string memory _filehash, string memory _time ) public {\r\n        studentfilesCount++;\r\n        filesbystudents[studentfilesCount]=FileStudent(studentfilesCount,_filehash,_subject,_time,_description,msg.sender);       \r\n    }\r\n    function addNewfilebyTeacher( string memory _subject, string memory _filehash, string memory _time,string memory _description ) public {\r\n        teacherfilesCount++;\r\n        filesbyteachers[teacherfilesCount]=FileTeacher(studentfilesCount,_filehash,_subject,_time,_description,msg.sender);   \r\n        \r\n    }\r\n  \r\n    \r\n\r\n}",
  "sourcePath": "C:/Users/Lenovo/Desktop/Teacher and Student/contracts/Study.sol",
  "compiler": {
    "name": "solc",
    "version": "0.5.16+commit.9c3226ce.Emscripten.clang"
  },
  "schemaVersion": "3.3.4",
  "updatedAt": "2021-03-31T15:33:22.856Z",
  "networkType": "ethereum",
  "devdoc": {
    "methods": {}
  },
  "userdoc": {
    "methods": {}
  }
}